{
  "_format": "hh-sol-artifact-1",
  "contractName": "NFT",
  "sourceName": "contracts/NFT.sol",
  "abi": [
    {
      "inputs": [
        {
          "internalType": "address",
          "name": "marketplaceAddress",
          "type": "address"
        },
        {
          "internalType": "address",
          "name": "scoreTokenAddress",
          "type": "address"
        }
      ],
      "stateMutability": "nonpayable",
      "type": "constructor"
    },
    {
      "anonymous": false,
      "inputs": [
        {
          "indexed": true,
          "internalType": "address",
          "name": "owner",
          "type": "address"
        },
        {
          "indexed": true,
          "internalType": "address",
          "name": "approved",
          "type": "address"
        },
        {
          "indexed": true,
          "internalType": "uint256",
          "name": "tokenId",
          "type": "uint256"
        }
      ],
      "name": "Approval",
      "type": "event"
    },
    {
      "anonymous": false,
      "inputs": [
        {
          "indexed": true,
          "internalType": "address",
          "name": "owner",
          "type": "address"
        },
        {
          "indexed": true,
          "internalType": "address",
          "name": "operator",
          "type": "address"
        },
        {
          "indexed": false,
          "internalType": "bool",
          "name": "approved",
          "type": "bool"
        }
      ],
      "name": "ApprovalForAll",
      "type": "event"
    },
    {
      "anonymous": false,
      "inputs": [
        {
          "indexed": true,
          "internalType": "address",
          "name": "previousOwner",
          "type": "address"
        },
        {
          "indexed": true,
          "internalType": "address",
          "name": "newOwner",
          "type": "address"
        }
      ],
      "name": "OwnershipTransferred",
      "type": "event"
    },
    {
      "anonymous": false,
      "inputs": [
        {
          "indexed": true,
          "internalType": "address",
          "name": "from",
          "type": "address"
        },
        {
          "indexed": true,
          "internalType": "address",
          "name": "to",
          "type": "address"
        },
        {
          "indexed": true,
          "internalType": "uint256",
          "name": "tokenId",
          "type": "uint256"
        }
      ],
      "name": "Transfer",
      "type": "event"
    },
    {
      "inputs": [
        {
          "internalType": "address",
          "name": "to",
          "type": "address"
        },
        {
          "internalType": "uint256",
          "name": "tokenId",
          "type": "uint256"
        }
      ],
      "name": "approve",
      "outputs": [],
      "stateMutability": "nonpayable",
      "type": "function"
    },
    {
      "inputs": [
        {
          "internalType": "address",
          "name": "owner",
          "type": "address"
        }
      ],
      "name": "balanceOf",
      "outputs": [
        {
          "internalType": "uint256",
          "name": "",
          "type": "uint256"
        }
      ],
      "stateMutability": "view",
      "type": "function"
    },
    {
      "inputs": [
        {
          "internalType": "uint256",
          "name": "tokenId",
          "type": "uint256"
        }
      ],
      "name": "burn",
      "outputs": [],
      "stateMutability": "nonpayable",
      "type": "function"
    },
    {
      "inputs": [
        {
          "internalType": "string",
          "name": "uri",
          "type": "string"
        }
      ],
      "name": "createToken",
      "outputs": [
        {
          "internalType": "uint256",
          "name": "",
          "type": "uint256"
        }
      ],
      "stateMutability": "nonpayable",
      "type": "function"
    },
    {
      "inputs": [
        {
          "internalType": "uint256",
          "name": "tokenId",
          "type": "uint256"
        }
      ],
      "name": "exists",
      "outputs": [
        {
          "internalType": "bool",
          "name": "",
          "type": "bool"
        }
      ],
      "stateMutability": "view",
      "type": "function"
    },
    {
      "inputs": [
        {
          "internalType": "uint256",
          "name": "tokenId",
          "type": "uint256"
        }
      ],
      "name": "getApproved",
      "outputs": [
        {
          "internalType": "address",
          "name": "",
          "type": "address"
        }
      ],
      "stateMutability": "view",
      "type": "function"
    },
    {
      "inputs": [
        {
          "internalType": "address",
          "name": "owner",
          "type": "address"
        },
        {
          "internalType": "address",
          "name": "operator",
          "type": "address"
        }
      ],
      "name": "isApprovedForAll",
      "outputs": [
        {
          "internalType": "bool",
          "name": "",
          "type": "bool"
        }
      ],
      "stateMutability": "view",
      "type": "function"
    },
    {
      "inputs": [
        {
          "internalType": "string",
          "name": "uri",
          "type": "string"
        },
        {
          "internalType": "address",
          "name": "_author",
          "type": "address"
        }
      ],
      "name": "mintAsDonorFromAuthor",
      "outputs": [
        {
          "internalType": "uint256",
          "name": "",
          "type": "uint256"
        }
      ],
      "stateMutability": "payable",
      "type": "function"
    },
    {
      "inputs": [],
      "name": "name",
      "outputs": [
        {
          "internalType": "string",
          "name": "",
          "type": "string"
        }
      ],
      "stateMutability": "view",
      "type": "function"
    },
    {
      "inputs": [],
      "name": "owner",
      "outputs": [
        {
          "internalType": "address",
          "name": "",
          "type": "address"
        }
      ],
      "stateMutability": "view",
      "type": "function"
    },
    {
      "inputs": [
        {
          "internalType": "uint256",
          "name": "tokenId",
          "type": "uint256"
        }
      ],
      "name": "ownerOf",
      "outputs": [
        {
          "internalType": "address",
          "name": "",
          "type": "address"
        }
      ],
      "stateMutability": "view",
      "type": "function"
    },
    {
      "inputs": [],
      "name": "renounceOwnership",
      "outputs": [],
      "stateMutability": "nonpayable",
      "type": "function"
    },
    {
      "inputs": [
        {
          "internalType": "address",
          "name": "from",
          "type": "address"
        },
        {
          "internalType": "address",
          "name": "to",
          "type": "address"
        },
        {
          "internalType": "uint256",
          "name": "tokenId",
          "type": "uint256"
        }
      ],
      "name": "safeTransferFrom",
      "outputs": [],
      "stateMutability": "nonpayable",
      "type": "function"
    },
    {
      "inputs": [
        {
          "internalType": "address",
          "name": "from",
          "type": "address"
        },
        {
          "internalType": "address",
          "name": "to",
          "type": "address"
        },
        {
          "internalType": "uint256",
          "name": "tokenId",
          "type": "uint256"
        },
        {
          "internalType": "bytes",
          "name": "_data",
          "type": "bytes"
        }
      ],
      "name": "safeTransferFrom",
      "outputs": [],
      "stateMutability": "nonpayable",
      "type": "function"
    },
    {
      "inputs": [
        {
          "internalType": "address",
          "name": "operator",
          "type": "address"
        },
        {
          "internalType": "bool",
          "name": "approved",
          "type": "bool"
        }
      ],
      "name": "setApprovalForAll",
      "outputs": [],
      "stateMutability": "nonpayable",
      "type": "function"
    },
    {
      "inputs": [
        {
          "internalType": "bytes4",
          "name": "interfaceId",
          "type": "bytes4"
        }
      ],
      "name": "supportsInterface",
      "outputs": [
        {
          "internalType": "bool",
          "name": "",
          "type": "bool"
        }
      ],
      "stateMutability": "view",
      "type": "function"
    },
    {
      "inputs": [],
      "name": "symbol",
      "outputs": [
        {
          "internalType": "string",
          "name": "",
          "type": "string"
        }
      ],
      "stateMutability": "view",
      "type": "function"
    },
    {
      "inputs": [
        {
          "internalType": "uint256",
          "name": "index",
          "type": "uint256"
        }
      ],
      "name": "tokenByIndex",
      "outputs": [
        {
          "internalType": "uint256",
          "name": "",
          "type": "uint256"
        }
      ],
      "stateMutability": "view",
      "type": "function"
    },
    {
      "inputs": [
        {
          "internalType": "address",
          "name": "owner",
          "type": "address"
        },
        {
          "internalType": "uint256",
          "name": "index",
          "type": "uint256"
        }
      ],
      "name": "tokenOfOwnerByIndex",
      "outputs": [
        {
          "internalType": "uint256",
          "name": "",
          "type": "uint256"
        }
      ],
      "stateMutability": "view",
      "type": "function"
    },
    {
      "inputs": [
        {
          "internalType": "uint256",
          "name": "tokenId",
          "type": "uint256"
        }
      ],
      "name": "tokenURI",
      "outputs": [
        {
          "internalType": "string",
          "name": "",
          "type": "string"
        }
      ],
      "stateMutability": "view",
      "type": "function"
    },
    {
      "inputs": [
        {
          "internalType": "address",
          "name": "_owner",
          "type": "address"
        },
        {
          "internalType": "uint8",
          "name": "_page",
          "type": "uint8"
        },
        {
          "internalType": "uint8",
          "name": "_rows",
          "type": "uint8"
        }
      ],
      "name": "tokensOfOwner",
      "outputs": [
        {
          "internalType": "uint256[]",
          "name": "",
          "type": "uint256[]"
        }
      ],
      "stateMutability": "view",
      "type": "function"
    },
    {
      "inputs": [],
      "name": "totalSupply",
      "outputs": [
        {
          "internalType": "uint256",
          "name": "",
          "type": "uint256"
        }
      ],
      "stateMutability": "view",
      "type": "function"
    },
    {
      "inputs": [
        {
          "internalType": "address",
          "name": "from",
          "type": "address"
        },
        {
          "internalType": "address",
          "name": "to",
          "type": "address"
        },
        {
          "internalType": "uint256",
          "name": "tokenId",
          "type": "uint256"
        }
      ],
      "name": "transferFrom",
      "outputs": [],
      "stateMutability": "nonpayable",
      "type": "function"
    },
    {
      "inputs": [
        {
          "internalType": "address",
          "name": "newOwner",
          "type": "address"
        }
      ],
      "name": "transferOwnership",
      "outputs": [],
      "stateMutability": "nonpayable",
      "type": "function"
    },
    {
      "inputs": [
        {
          "internalType": "address",
          "name": "_tokenContract",
          "type": "address"
        },
        {
          "internalType": "uint256",
          "name": "_amount",
          "type": "uint256"
        }
      ],
      "name": "withdrawToken",
      "outputs": [],
      "stateMutability": "nonpayable",
      "type": "function"
    }
  ],
  "bytecode": "0x60806040523480156200001157600080fd5b5060405162002d5338038062002d538339810160408190526200003491620001f5565b60408051808201825260038082526221a19b60e91b602080840182815285518087019096529285528401528151919291620000729160009162000132565b5080516200008890600190602084019062000132565b505050620000a56200009f620000dc60201b60201c565b620000e0565b6001600c55600e80546001600160a01b039384166001600160a01b031991821617909155600f805492909316911617905562000269565b3390565b600b80546001600160a01b038381166001600160a01b0319831681179093556040519116919082907f8be0079c531659141344cd1fd0a4f28419497f9722a3daafe3b4186f6b6457e090600090a35050565b82805462000140906200022c565b90600052602060002090601f016020900481019282620001645760008555620001af565b82601f106200017f57805160ff1916838001178555620001af565b82800160010185558215620001af579182015b82811115620001af57825182559160200191906001019062000192565b50620001bd929150620001c1565b5090565b5b80821115620001bd5760008155600101620001c2565b80516001600160a01b0381168114620001f057600080fd5b919050565b6000806040838503121562000208578182fd5b6200021383620001d8565b91506200022360208401620001d8565b90509250929050565b600181811c908216806200024157607f821691505b602082108114156200026357634e487b7160e01b600052602260045260246000fd5b50919050565b612ada80620002796000396000f3fe6080604052600436106101665760003560e01c80634f6ccce7116100d15780639e281a981161008a578063c87b56dd11610064578063c87b56dd14610430578063d07320f314610450578063e985e9c514610463578063f2fde38b146104ac57600080fd5b80639e281a98146103d0578063a22cb465146103f0578063b88d4fde1461041057600080fd5b80634f6ccce7146103285780636352211e1461034857806370a0823114610368578063715018a6146103885780638da5cb5b1461039d57806395d89b41146103bb57600080fd5b80632f745c59116101235780632f745c591461025b57806342842e0e1461027b57806342966c681461029b57806345576f94146102bb5780634d9c5e58146102db5780634f558e791461030857600080fd5b806301ffc9a71461016b57806306fdde03146101a0578063081812fc146101c2578063095ea7b3146101fa57806318160ddd1461021c57806323b872dd1461023b575b600080fd5b34801561017757600080fd5b5061018b610186366004612655565b6104cc565b60405190151581526020015b60405180910390f35b3480156101ac57600080fd5b506101b56104dd565b604051610197919061280f565b3480156101ce57600080fd5b506101e26101dd366004612703565b61056f565b6040516001600160a01b039091168152602001610197565b34801561020657600080fd5b5061021a6102153660046125ce565b6105fc565b005b34801561022857600080fd5b506008545b604051908152602001610197565b34801561024757600080fd5b5061021a6102563660046124e4565b610712565b34801561026757600080fd5b5061022d6102763660046125ce565b610744565b34801561028757600080fd5b5061021a6102963660046124e4565b6107da565b3480156102a757600080fd5b5061021a6102b6366004612703565b6107f5565b3480156102c757600080fd5b5061022d6102d636600461268d565b61086f565b3480156102e757600080fd5b506102fb6102f63660046125f7565b610a8c565b60405161019791906127cb565b34801561031457600080fd5b5061018b610323366004612703565b610c3e565b34801561033457600080fd5b5061022d610343366004612703565b610c49565b34801561035457600080fd5b506101e2610363366004612703565b610cea565b34801561037457600080fd5b5061022d610383366004612498565b610d61565b34801561039457600080fd5b5061021a610de8565b3480156103a957600080fd5b50600b546001600160a01b03166101e2565b3480156103c757600080fd5b506101b5610e1e565b3480156103dc57600080fd5b5061021a6103eb3660046125ce565b610e2d565b3480156103fc57600080fd5b5061021a61040b366004612598565b610eff565b34801561041c57600080fd5b5061021a61042b36600461251f565b610f0e565b34801561043c57600080fd5b506101b561044b366004612703565b610f40565b61022d61045e3660046126c0565b610f4b565b34801561046f57600080fd5b5061018b61047e3660046124b2565b6001600160a01b03918216600090815260056020908152604080832093909416825291909152205460ff1690565b3480156104b857600080fd5b5061021a6104c7366004612498565b6112bb565b60006104d782611353565b92915050565b6060600080546104ec906129d4565b80601f0160208091040260200160405190810160405280929190818152602001828054610518906129d4565b80156105655780601f1061053a57610100808354040283529160200191610565565b820191906000526020600020905b81548152906001019060200180831161054857829003601f168201915b5050505050905090565b600061057a82611378565b6105e05760405162461bcd60e51b815260206004820152602c60248201527f4552433732313a20617070726f76656420717565727920666f72206e6f6e657860448201526b34b9ba32b73a103a37b5b2b760a11b60648201526084015b60405180910390fd5b506000908152600460205260409020546001600160a01b031690565b600061060782610cea565b9050806001600160a01b0316836001600160a01b031614156106755760405162461bcd60e51b815260206004820152602160248201527f4552433732313a20617070726f76616c20746f2063757272656e74206f776e656044820152603960f91b60648201526084016105d7565b336001600160a01b03821614806106915750610691813361047e565b6107035760405162461bcd60e51b815260206004820152603860248201527f4552433732313a20617070726f76652063616c6c6572206973206e6f74206f7760448201527f6e6572206e6f7220617070726f76656420666f7220616c6c000000000000000060648201526084016105d7565b61070d8383611395565b505050565b61071d335b82611403565b6107395760405162461bcd60e51b81526004016105d7906128a9565b61070d8383836114ed565b600061074f83610d61565b82106107b15760405162461bcd60e51b815260206004820152602b60248201527f455243373231456e756d657261626c653a206f776e657220696e646578206f7560448201526a74206f6620626f756e647360a81b60648201526084016105d7565b506001600160a01b03919091166000908152600660209081526040808320938352929052205490565b61070d83838360405180602001604052806000815250610f0e565b6107fe33610717565b6108635760405162461bcd60e51b815260206004820152603060248201527f4552433732314275726e61626c653a2063616c6c6572206973206e6f74206f7760448201526f1b995c881b9bdc88185c1c1c9bdd995960821b60648201526084016105d7565b61086c81611698565b50565b60008061087f836000600c6116a1565b90507ff9deb101de178d5c8a7562a50faba9e152b067e3ad3414a822c4759b0689c7ec8180519060200120146108eb5760405162461bcd60e51b81526020600482015260116024820152706669727374737472206e6f742073616d6560781b60448201526064016105d7565b6108f9600d80546001019055565b6000610904600d5490565b90506109103382611798565b61091a81856118d7565b600e54610931906001600160a01b03166001610eff565b600f546040516370a0823160e01b8152306004820152670de0b6b3a7640000916001600160a01b03169060009082906370a082319060240160206040518083038186803b15801561098157600080fd5b505afa158015610995573d6000803e3d6000fd5b505050506040513d601f19601f820116820180604052508101906109b9919061271b565b90508083106109fc5760405162461bcd60e51b815260206004820152600f60248201526e62616c616e636520746f6f206c6f7760881b60448201526064016105d7565b600f5460405163a9059cbb60e01b8152336004820152602481018590526001600160a01b039091169063a9059cbb90604401602060405180830381600087803b158015610a4857600080fd5b505af1158015610a5c573d6000803e3d6000fd5b505050506040513d601f19601f82011682018060405250810190610a809190612639565b50929695505050505050565b606060008360ff1611610ae15760405162461bcd60e51b815260206004820152601e60248201527f5f706167652073686f756c642062652067726561746572207468616e2030000060448201526064016105d7565b60008260ff1611610b345760405162461bcd60e51b815260206004820152601e60248201527f5f726f77732073686f756c642062652067726561746572207468616e2030000060448201526064016105d7565b6000610b3f85610d61565b9050600083610b4f600187612985565b610b599190612945565b60ff1690506000828211610b8257610b7d610b74838561296e565b8660ff16611962565b610b85565b60005b905060008167ffffffffffffffff811115610bb057634e487b7160e01b600052604160045260246000fd5b604051908082528060200260200182016040528015610bd9578160200160208202803683370190505b50905060005b82811015610c3257610bf58961027683876128fa565b828281518110610c1557634e487b7160e01b600052603260045260246000fd5b602090810291909101015280610c2a81612a0f565b915050610bdf565b50979650505050505050565b60006104d782611378565b6000610c5460085490565b8210610cb75760405162461bcd60e51b815260206004820152602c60248201527f455243373231456e756d657261626c653a20676c6f62616c20696e646578206f60448201526b7574206f6620626f756e647360a01b60648201526084016105d7565b60088281548110610cd857634e487b7160e01b600052603260045260246000fd5b90600052602060002001549050919050565b6000818152600260205260408120546001600160a01b0316806104d75760405162461bcd60e51b815260206004820152602960248201527f4552433732313a206f776e657220717565727920666f72206e6f6e657869737460448201526832b73a103a37b5b2b760b91b60648201526084016105d7565b60006001600160a01b038216610dcc5760405162461bcd60e51b815260206004820152602a60248201527f4552433732313a2062616c616e636520717565727920666f7220746865207a65604482015269726f206164647265737360b01b60648201526084016105d7565b506001600160a01b031660009081526003602052604090205490565b600b546001600160a01b03163314610e125760405162461bcd60e51b81526004016105d790612874565b610e1c600061197a565b565b6060600180546104ec906129d4565b600b546001600160a01b03163314610e575760405162461bcd60e51b81526004016105d790612874565b816001600160a01b03811663a9059cbb610e79600b546001600160a01b031690565b6040516001600160e01b031960e084901b1681526001600160a01b03909116600482015260248101859052604401602060405180830381600087803b158015610ec157600080fd5b505af1158015610ed5573d6000803e3d6000fd5b505050506040513d601f19601f82011682018060405250810190610ef99190612639565b50505050565b610f0a3383836119cc565b5050565b610f183383611403565b610f345760405162461bcd60e51b81526004016105d7906128a9565b610ef984848484611a9b565b60606104d782611ace565b60006002600c541415610fa05760405162461bcd60e51b815260206004820152601f60248201527f5265656e7472616e637947756172643a207265656e7472616e742063616c6c0060448201526064016105d7565b6002600c819055506000610fb7846000600c6116a1565b90507ff9deb101de178d5c8a7562a50faba9e152b067e3ad3414a822c4759b0689c7ec8180519060200120146110235760405162461bcd60e51b81526020600482015260116024820152706669727374737472206e6f742073616d6560781b60448201526064016105d7565b611031600d80546001019055565b600061103c600d5490565b90506110483382611798565b61105281866118d7565b600061106961106234600a611c3d565b6009611c49565b6040519091506001600160a01b0386169082156108fc029083906000818181858888f193505050501580156110a2573d6000803e3d6000fd5b50600b546001600160a01b03166108fc6110bc833461296e565b6040518115909202916000818181858888f193505050501580156110e4573d6000803e3d6000fd5b50600f546040516370a0823160e01b81523060048201526001600160a01b039091169081906370a082319060240160206040518083038186803b15801561112a57600080fd5b505afa15801561113e573d6000803e3d6000fd5b505050506040513d601f19601f82011682018060405250810190611162919061271b565b34106111a25760405162461bcd60e51b815260206004820152600f60248201526e62616c616e636520746f6f206c6f7760881b60448201526064016105d7565b600f5460405163a9059cbb60e01b81526001600160a01b0388811660048301523460248301529091169063a9059cbb90604401602060405180830381600087803b1580156111ef57600080fd5b505af1158015611203573d6000803e3d6000fd5b505050506040513d601f19601f820116820180604052508101906112279190612639565b50600f5460405163a9059cbb60e01b81523360048201523460248201526001600160a01b039091169063a9059cbb90604401602060405180830381600087803b15801561127357600080fd5b505af1158015611287573d6000803e3d6000fd5b505050506040513d601f19601f820116820180604052508101906112ab9190612639565b50506001600c5550949350505050565b600b546001600160a01b031633146112e55760405162461bcd60e51b81526004016105d790612874565b6001600160a01b03811661134a5760405162461bcd60e51b815260206004820152602660248201527f4f776e61626c653a206e6577206f776e657220697320746865207a65726f206160448201526564647265737360d01b60648201526084016105d7565b61086c8161197a565b60006001600160e01b0319821663780e9d6360e01b14806104d757506104d782611c55565b6000908152600260205260409020546001600160a01b0316151590565b600081815260046020526040902080546001600160a01b0319166001600160a01b03841690811790915581906113ca82610cea565b6001600160a01b03167f8c5be1e5ebec7d5bd14f71427d1e84f3dd0314c0f7b2291e5b200ac8c7c3b92560405160405180910390a45050565b600061140e82611378565b61146f5760405162461bcd60e51b815260206004820152602c60248201527f4552433732313a206f70657261746f7220717565727920666f72206e6f6e657860448201526b34b9ba32b73a103a37b5b2b760a11b60648201526084016105d7565b600061147a83610cea565b9050806001600160a01b0316846001600160a01b031614806114b55750836001600160a01b03166114aa8461056f565b6001600160a01b0316145b806114e557506001600160a01b0380821660009081526005602090815260408083209388168352929052205460ff165b949350505050565b826001600160a01b031661150082610cea565b6001600160a01b0316146115685760405162461bcd60e51b815260206004820152602960248201527f4552433732313a207472616e73666572206f6620746f6b656e2074686174206960448201526839903737ba1037bbb760b91b60648201526084016105d7565b6001600160a01b0382166115ca5760405162461bcd60e51b8152602060048201526024808201527f4552433732313a207472616e7366657220746f20746865207a65726f206164646044820152637265737360e01b60648201526084016105d7565b6115d5838383611ca5565b6115e0600082611395565b6001600160a01b038316600090815260036020526040812080546001929061160990849061296e565b90915550506001600160a01b03821660009081526003602052604081208054600192906116379084906128fa565b909155505060008181526002602052604080822080546001600160a01b0319166001600160a01b0386811691821790925591518493918716917fddf252ad1be2c89b69c2b068fc378daa952ba7f163c4a11628f55a4df523b3ef91a4505050565b61086c81611cb0565b60608360006116b0858561296e565b67ffffffffffffffff8111156116d657634e487b7160e01b600052604160045260246000fd5b6040519080825280601f01601f191660200182016040528015611700576020820181803683370190505b509050845b8481101561178e5782818151811061172d57634e487b7160e01b600052603260045260246000fd5b01602001516001600160f81b03191682611747888461296e565b8151811061176557634e487b7160e01b600052603260045260246000fd5b60200101906001600160f81b031916908160001a9053508061178681612a0f565b915050611705565b5095945050505050565b6001600160a01b0382166117ee5760405162461bcd60e51b815260206004820181905260248201527f4552433732313a206d696e7420746f20746865207a65726f206164647265737360448201526064016105d7565b6117f781611378565b156118445760405162461bcd60e51b815260206004820152601c60248201527f4552433732313a20746f6b656e20616c7265616479206d696e7465640000000060448201526064016105d7565b61185060008383611ca5565b6001600160a01b03821660009081526003602052604081208054600192906118799084906128fa565b909155505060008181526002602052604080822080546001600160a01b0319166001600160a01b03861690811790915590518392907fddf252ad1be2c89b69c2b068fc378daa952ba7f163c4a11628f55a4df523b3ef908290a45050565b6118e082611378565b6119435760405162461bcd60e51b815260206004820152602e60248201527f45524337323155524953746f726167653a2055524920736574206f66206e6f6e60448201526d32bc34b9ba32b73a103a37b5b2b760911b60648201526084016105d7565b6000828152600a60209081526040909120825161070d92840190612307565b60008183106119715781611973565b825b9392505050565b600b80546001600160a01b038381166001600160a01b0319831681179093556040519116919082907f8be0079c531659141344cd1fd0a4f28419497f9722a3daafe3b4186f6b6457e090600090a35050565b816001600160a01b0316836001600160a01b03161415611a2e5760405162461bcd60e51b815260206004820152601960248201527f4552433732313a20617070726f766520746f2063616c6c65720000000000000060448201526064016105d7565b6001600160a01b03838116600081815260056020908152604080832094871680845294825291829020805460ff191686151590811790915591519182527f17307eab39ab6107e8899845ad3d59bd9653f200f220920489ca2b5937696c31910160405180910390a3505050565b611aa68484846114ed565b611ab284848484611cf0565b610ef95760405162461bcd60e51b81526004016105d790612822565b6060611ad982611378565b611b3f5760405162461bcd60e51b815260206004820152603160248201527f45524337323155524953746f726167653a2055524920717565727920666f72206044820152703737b732bc34b9ba32b73a103a37b5b2b760791b60648201526084016105d7565b6000828152600a602052604081208054611b58906129d4565b80601f0160208091040260200160405190810160405280929190818152602001828054611b84906129d4565b8015611bd15780601f10611ba657610100808354040283529160200191611bd1565b820191906000526020600020905b815481529060010190602001808311611bb457829003601f168201915b505050505090506000611bef60408051602081019091526000815290565b9050805160001415611c02575092915050565b815115611c34578082604051602001611c1c92919061275f565b60405160208183030381529060405292505050919050565b6114e584611dfd565b60006119738284612912565b60006119738284612926565b60006001600160e01b031982166380ac58cd60e01b1480611c8657506001600160e01b03198216635b5e139f60e01b145b806104d757506301ffc9a760e01b6001600160e01b03198316146104d7565b61070d838383611ed4565b611cb981611f8c565b6000818152600a602052604090208054611cd2906129d4565b15905061086c576000818152600a6020526040812061086c9161238b565b60006001600160a01b0384163b15611df257604051630a85bd0160e11b81526001600160a01b0385169063150b7a0290611d3490339089908890889060040161278e565b602060405180830381600087803b158015611d4e57600080fd5b505af1925050508015611d7e575060408051601f3d908101601f19168201909252611d7b91810190612671565b60015b611dd8573d808015611dac576040519150601f19603f3d011682016040523d82523d6000602084013e611db1565b606091505b508051611dd05760405162461bcd60e51b81526004016105d790612822565b805181602001fd5b6001600160e01b031916630a85bd0160e11b1490506114e5565b506001949350505050565b6060611e0882611378565b611e6c5760405162461bcd60e51b815260206004820152602f60248201527f4552433732314d657461646174613a2055524920717565727920666f72206e6f60448201526e3732bc34b9ba32b73a103a37b5b2b760891b60648201526084016105d7565b6000611e8360408051602081019091526000815290565b90506000815111611ea35760405180602001604052806000815250611973565b80611ead84612033565b604051602001611ebe92919061275f565b6040516020818303038152906040529392505050565b6001600160a01b038316611f2f57611f2a81600880546000838152600960205260408120829055600182018355919091527ff3f7a9fe364faab93b216da50a3214154f22a0a2b415b23a84c8169e8b636ee30155565b611f52565b816001600160a01b0316836001600160a01b031614611f5257611f52838261214d565b6001600160a01b038216611f695761070d816121ea565b826001600160a01b0316826001600160a01b03161461070d5761070d82826122c3565b6000611f9782610cea565b9050611fa581600084611ca5565b611fb0600083611395565b6001600160a01b0381166000908152600360205260408120805460019290611fd990849061296e565b909155505060008281526002602052604080822080546001600160a01b0319169055518391906001600160a01b038416907fddf252ad1be2c89b69c2b068fc378daa952ba7f163c4a11628f55a4df523b3ef908390a45050565b6060816120575750506040805180820190915260018152600360fc1b602082015290565b8160005b8115612081578061206b81612a0f565b915061207a9050600a83612912565b915061205b565b60008167ffffffffffffffff8111156120aa57634e487b7160e01b600052604160045260246000fd5b6040519080825280601f01601f1916602001820160405280156120d4576020820181803683370190505b5090505b84156114e5576120e960018361296e565b91506120f6600a86612a2a565b6121019060306128fa565b60f81b81838151811061212457634e487b7160e01b600052603260045260246000fd5b60200101906001600160f81b031916908160001a905350612146600a86612912565b94506120d8565b6000600161215a84610d61565b612164919061296e565b6000838152600760205260409020549091508082146121b7576001600160a01b03841660009081526006602090815260408083208584528252808320548484528184208190558352600790915290208190555b5060009182526007602090815260408084208490556001600160a01b039094168352600681528383209183525290812055565b6008546000906121fc9060019061296e565b6000838152600960205260408120546008805493945090928490811061223257634e487b7160e01b600052603260045260246000fd5b90600052602060002001549050806008838154811061226157634e487b7160e01b600052603260045260246000fd5b60009182526020808320909101929092558281526009909152604080822084905585825281205560088054806122a757634e487b7160e01b600052603160045260246000fd5b6001900381819060005260206000200160009055905550505050565b60006122ce83610d61565b6001600160a01b039093166000908152600660209081526040808320868452825280832085905593825260079052919091209190915550565b828054612313906129d4565b90600052602060002090601f016020900481019282612335576000855561237b565b82601f1061234e57805160ff191683800117855561237b565b8280016001018555821561237b579182015b8281111561237b578251825591602001919060010190612360565b506123879291506123c1565b5090565b508054612397906129d4565b6000825580601f106123a7575050565b601f01602090049060005260206000209081019061086c91905b5b8082111561238757600081556001016123c2565b600067ffffffffffffffff808411156123f1576123f1612a6a565b604051601f8501601f19908116603f0116810190828211818310171561241957612419612a6a565b8160405280935085815286868601111561243257600080fd5b858560208301376000602087830101525050509392505050565b80356001600160a01b038116811461246357600080fd5b919050565b600082601f830112612478578081fd5b611973838335602085016123d6565b803560ff8116811461246357600080fd5b6000602082840312156124a9578081fd5b6119738261244c565b600080604083850312156124c4578081fd5b6124cd8361244c565b91506124db6020840161244c565b90509250929050565b6000806000606084860312156124f8578081fd5b6125018461244c565b925061250f6020850161244c565b9150604084013590509250925092565b60008060008060808587031215612534578081fd5b61253d8561244c565b935061254b6020860161244c565b925060408501359150606085013567ffffffffffffffff81111561256d578182fd5b8501601f8101871361257d578182fd5b61258c878235602084016123d6565b91505092959194509250565b600080604083850312156125aa578182fd5b6125b38361244c565b915060208301356125c381612a80565b809150509250929050565b600080604083850312156125e0578182fd5b6125e98361244c565b946020939093013593505050565b60008060006060848603121561260b578283fd5b6126148461244c565b925061262260208501612487565b915061263060408501612487565b90509250925092565b60006020828403121561264a578081fd5b815161197381612a80565b600060208284031215612666578081fd5b813561197381612a8e565b600060208284031215612682578081fd5b815161197381612a8e565b60006020828403121561269e578081fd5b813567ffffffffffffffff8111156126b4578182fd5b6114e584828501612468565b600080604083850312156126d2578182fd5b823567ffffffffffffffff8111156126e8578283fd5b6126f485828601612468565b9250506124db6020840161244c565b600060208284031215612714578081fd5b5035919050565b60006020828403121561272c578081fd5b5051919050565b6000815180845261274b8160208601602086016129a8565b601f01601f19169290920160200192915050565b600083516127718184602088016129a8565b8351908301906127858183602088016129a8565b01949350505050565b6001600160a01b03858116825284166020820152604081018390526080606082018190526000906127c190830184612733565b9695505050505050565b6020808252825182820181905260009190848201906040850190845b81811015612803578351835292840192918401916001016127e7565b50909695505050505050565b6020815260006119736020830184612733565b60208082526032908201527f4552433732313a207472616e7366657220746f206e6f6e20455243373231526560408201527131b2b4bb32b91034b6b83632b6b2b73a32b960711b606082015260800190565b6020808252818101527f4f776e61626c653a2063616c6c6572206973206e6f7420746865206f776e6572604082015260600190565b60208082526031908201527f4552433732313a207472616e736665722063616c6c6572206973206e6f74206f6040820152701ddb995c881b9bdc88185c1c1c9bdd9959607a1b606082015260800190565b6000821982111561290d5761290d612a3e565b500190565b60008261292157612921612a54565b500490565b600081600019048311821515161561294057612940612a3e565b500290565b600060ff821660ff84168160ff048111821515161561296657612966612a3e565b029392505050565b60008282101561298057612980612a3e565b500390565b600060ff821660ff84168082101561299f5761299f612a3e565b90039392505050565b60005b838110156129c35781810151838201526020016129ab565b83811115610ef95750506000910152565b600181811c908216806129e857607f821691505b60208210811415612a0957634e487b7160e01b600052602260045260246000fd5b50919050565b6000600019821415612a2357612a23612a3e565b5060010190565b600082612a3957612a39612a54565b500690565b634e487b7160e01b600052601160045260246000fd5b634e487b7160e01b600052601260045260246000fd5b634e487b7160e01b600052604160045260246000fd5b801515811461086c57600080fd5b6001600160e01b03198116811461086c57600080fdfea264697066735822122033780c0ab895e44b38115b9c8801a330a6c34c9fa7c7d9719ad29bb350a8627964736f6c63430008040033",
  "linkReferences": {},
  "deployedLinkReferences": {}
}