{
  "_format": "hh-sol-artifact-1",
  "contractName": "NFTMarket",
  "sourceName": "contracts/Market.sol",
  "abi": [
    {
      "inputs": [],
      "stateMutability": "nonpayable",
      "type": "constructor"
    },
    {
      "anonymous": false,
      "inputs": [
        {
          "indexed": true,
          "internalType": "uint256",
          "name": "itemId",
          "type": "uint256"
        },
        {
          "indexed": true,
          "internalType": "address",
          "name": "nftContract",
          "type": "address"
        },
        {
          "indexed": true,
          "internalType": "uint256",
          "name": "tokenId",
          "type": "uint256"
        },
        {
          "indexed": false,
          "internalType": "address",
          "name": "seller",
          "type": "address"
        },
        {
          "indexed": false,
          "internalType": "address",
          "name": "owner",
          "type": "address"
        },
        {
          "indexed": false,
          "internalType": "uint256",
          "name": "price",
          "type": "uint256"
        },
        {
          "indexed": false,
          "internalType": "bool",
          "name": "sold",
          "type": "bool"
        }
      ],
      "name": "MarketItemCreated",
      "type": "event"
    },
    {
      "inputs": [
        {
          "internalType": "address",
          "name": "nftContract",
          "type": "address"
        },
        {
          "internalType": "uint256",
          "name": "tokenId",
          "type": "uint256"
        },
        {
          "internalType": "uint256",
          "name": "price",
          "type": "uint256"
        }
      ],
      "name": "createMarketItem",
      "outputs": [],
      "stateMutability": "payable",
      "type": "function"
    },
    {
      "inputs": [
        {
          "internalType": "address",
          "name": "nftContract",
          "type": "address"
        },
        {
          "internalType": "uint256",
          "name": "itemId",
          "type": "uint256"
        }
      ],
      "name": "createMarketSale",
      "outputs": [],
      "stateMutability": "payable",
      "type": "function"
    },
    {
      "inputs": [
        {
          "internalType": "address",
          "name": "nftContract",
          "type": "address"
        },
        {
          "internalType": "uint256",
          "name": "tokenId",
          "type": "uint256"
        }
      ],
      "name": "createMarketSaleBytokenId",
      "outputs": [],
      "stateMutability": "payable",
      "type": "function"
    },
    {
      "inputs": [],
      "name": "fetchItemsCreated",
      "outputs": [
        {
          "components": [
            {
              "internalType": "uint256",
              "name": "itemId",
              "type": "uint256"
            },
            {
              "internalType": "address",
              "name": "nftContract",
              "type": "address"
            },
            {
              "internalType": "uint256",
              "name": "tokenId",
              "type": "uint256"
            },
            {
              "internalType": "address payable",
              "name": "seller",
              "type": "address"
            },
            {
              "internalType": "address payable",
              "name": "owner",
              "type": "address"
            },
            {
              "internalType": "uint256",
              "name": "price",
              "type": "uint256"
            },
            {
              "internalType": "bool",
              "name": "sold",
              "type": "bool"
            }
          ],
          "internalType": "struct NFTMarket.MarketItem[]",
          "name": "",
          "type": "tuple[]"
        }
      ],
      "stateMutability": "view",
      "type": "function"
    },
    {
      "inputs": [],
      "name": "fetchMarketItems",
      "outputs": [
        {
          "components": [
            {
              "internalType": "uint256",
              "name": "itemId",
              "type": "uint256"
            },
            {
              "internalType": "address",
              "name": "nftContract",
              "type": "address"
            },
            {
              "internalType": "uint256",
              "name": "tokenId",
              "type": "uint256"
            },
            {
              "internalType": "address payable",
              "name": "seller",
              "type": "address"
            },
            {
              "internalType": "address payable",
              "name": "owner",
              "type": "address"
            },
            {
              "internalType": "uint256",
              "name": "price",
              "type": "uint256"
            },
            {
              "internalType": "bool",
              "name": "sold",
              "type": "bool"
            }
          ],
          "internalType": "struct NFTMarket.MarketItem[]",
          "name": "",
          "type": "tuple[]"
        }
      ],
      "stateMutability": "view",
      "type": "function"
    },
    {
      "inputs": [],
      "name": "fetchMyNFTs",
      "outputs": [
        {
          "components": [
            {
              "internalType": "uint256",
              "name": "itemId",
              "type": "uint256"
            },
            {
              "internalType": "address",
              "name": "nftContract",
              "type": "address"
            },
            {
              "internalType": "uint256",
              "name": "tokenId",
              "type": "uint256"
            },
            {
              "internalType": "address payable",
              "name": "seller",
              "type": "address"
            },
            {
              "internalType": "address payable",
              "name": "owner",
              "type": "address"
            },
            {
              "internalType": "uint256",
              "name": "price",
              "type": "uint256"
            },
            {
              "internalType": "bool",
              "name": "sold",
              "type": "bool"
            }
          ],
          "internalType": "struct NFTMarket.MarketItem[]",
          "name": "",
          "type": "tuple[]"
        }
      ],
      "stateMutability": "view",
      "type": "function"
    },
    {
      "inputs": [],
      "name": "getListingPrice",
      "outputs": [
        {
          "internalType": "uint256",
          "name": "",
          "type": "uint256"
        }
      ],
      "stateMutability": "view",
      "type": "function"
    }
  ],
  "bytecode": "0x6080604052655af3107a400060045534801561001a57600080fd5b506001600055600380546001600160a01b031916331790556110f3806100416000396000f3fe6080604052600436106100705760003560e01c80633403a7b41161004e5780633403a7b4146100d357806358eb2df5146100e8578063c23b139e146100fb578063f064c32e1461010e57600080fd5b80630f08efe01461007557806312e85585146100a0578063202e3740146100be575b600080fd5b34801561008157600080fd5b5061008a610123565b6040516100979190610f34565b60405180910390f35b3480156100ac57600080fd5b50600454604051908152602001610097565b3480156100ca57600080fd5b5061008a6102cb565b6100e66100e1366004610ed9565b6104b1565b005b6100e66100f6366004610f02565b6106f2565b6100e6610109366004610ed9565b610b1c565b34801561011a57600080fd5b5061008a610c9b565b6060600061013060015490565b9050600061013d60025490565b60015461014a9190611075565b90506000808267ffffffffffffffff81111561017657634e487b7160e01b600052604160045260246000fd5b6040519080825280602002602001820160405280156101af57816020015b61019c610e81565b8152602001906001900390816101945790505b50905060005b848110156102c25760006005816101cd84600161105d565b81526020810191909152604001600020600401546001600160a01b031614156102b05760006101fd82600161105d565b600081815260056020818152604092839020835160e0810185528154815260018201546001600160a01b0390811693820193909352600282015494810194909452600381015482166060850152600481015490911660808401529081015460a0830152600681015460ff16151560c083015285519293509185908790811061029557634e487b7160e01b600052603260045260246000fd5b60209081029190910101526102ab60018661105d565b945050505b806102ba8161108c565b9150506101b5565b50949350505050565b606060006102d860015490565b905060008060005b8381101561033b5733600560006102f884600161105d565b81526020810191909152604001600020600401546001600160a01b031614156103295761032660018461105d565b92505b806103338161108c565b9150506102e0565b5060008267ffffffffffffffff81111561036557634e487b7160e01b600052604160045260246000fd5b60405190808252806020026020018201604052801561039e57816020015b61038b610e81565b8152602001906001900390816103835790505b50905060005b848110156102c25733600560006103bc84600161105d565b81526020810191909152604001600020600401546001600160a01b0316141561049f5760006103ec82600161105d565b600081815260056020818152604092839020835160e0810185528154815260018201546001600160a01b0390811693820193909352600282015494810194909452600381015482166060850152600481015490911660808401529081015460a0830152600681015460ff16151560c083015285519293509185908790811061048457634e487b7160e01b600052603260045260246000fd5b602090810291909101015261049a60018661105d565b945050505b806104a98161108c565b9150506103a4565b600260005414156104dd5760405162461bcd60e51b81526004016104d490611026565b60405180910390fd5b6002600081815582815260066020908152604080832054808452600590925290912090910154821461055d5760405162461bcd60e51b8152602060048201526024808201527f536f7272792120746f6b656e4964206572726f722c2077652077696c6c2066696044820152631e081a5d60e21b60648201526084016104d4565b60008281526006602052604090206005015434811461058e5760405162461bcd60e51b81526004016104d490610fc8565b6000828152600560205260408082206003015490516001600160a01b03909116913480156108fc02929091818181858888f193505050501580156105d6573d6000803e3d6000fd5b506040516323b872dd60e01b8152306004820152336024820152604481018490526001600160a01b038516906323b872dd90606401600060405180830381600087803b15801561062557600080fd5b505af1158015610639573d6000803e3d6000fd5b505050600083815260056020908152604080832060048082018054336001600160a01b031991821681179092556006938401805460ff1990811660019081179092558c8952968590529490962091820180549096161790945592909201805490911682179055600280549091019055505b6003546004546040516001600160a01b039092169181156108fc0291906000818181858888f193505050501580156106e6573d6000803e3d6000fd5b50506001600055505050565b600260005414156107155760405162461bcd60e51b81526004016104d490611026565b6002600055806107675760405162461bcd60e51b815260206004820152601c60248201527f5072696365206d757374206265206174206c656173742031207765690000000060448201526064016104d4565b60045434146107c45760405162461bcd60e51b8152602060048201526024808201527f5072696365206d75737420626520657175616c20746f206c697374696e6720706044820152637269636560e01b60648201526084016104d4565b6107d2600180546001019055565b60006107dd60015490565b90506040518060e00160405280828152602001856001600160a01b03168152602001848152602001336001600160a01b0316815260200160006001600160a01b0316815260200183815260200160001515815250600560008381526020019081526020016000206000820151816000015560208201518160010160006101000a8154816001600160a01b0302191690836001600160a01b031602179055506040820151816002015560608201518160030160006101000a8154816001600160a01b0302191690836001600160a01b0316021790555060808201518160040160006101000a8154816001600160a01b0302191690836001600160a01b0316021790555060a0820151816005015560c08201518160060160006101000a81548160ff0219169083151502179055509050506040518060e00160405280828152602001856001600160a01b03168152602001848152602001336001600160a01b0316815260200160006001600160a01b0316815260200183815260200160001515815250600660008581526020019081526020016000206000820151816000015560208201518160010160006101000a8154816001600160a01b0302191690836001600160a01b031602179055506040820151816002015560608201518160030160006101000a8154816001600160a01b0302191690836001600160a01b0316021790555060808201518160040160006101000a8154816001600160a01b0302191690836001600160a01b0316021790555060a0820151816005015560c08201518160060160006101000a81548160ff021916908315150217905550905050836001600160a01b03166323b872dd3330866040518463ffffffff1660e01b8152600401610a88939291906001600160a01b039384168152919092166020820152604081019190915260600190565b600060405180830381600087803b158015610aa257600080fd5b505af1158015610ab6573d6000803e3d6000fd5b505060408051338152600060208201819052818301879052606082015290518693506001600160a01b038816925084917f045dfa01dcba2b36aba1d3dc4a874f4b0c5d2fbeb8d2c4b34a7d88c8d8f929d1919081900360800190a4505060016000555050565b60026000541415610b3f5760405162461bcd60e51b81526004016104d490611026565b6002600081815582815260056020819052604090912090810154910154348214610b7b5760405162461bcd60e51b81526004016104d490610fc8565b6000838152600560205260408082206003015490516001600160a01b03909116913480156108fc02929091818181858888f19350505050158015610bc3573d6000803e3d6000fd5b506040516323b872dd60e01b8152306004820152336024820152604481018290526001600160a01b038516906323b872dd90606401600060405180830381600087803b158015610c1257600080fd5b505af1158015610c26573d6000803e3d6000fd5b505050600084815260056020908152604080832060048082018054336001600160a01b031991821681179092556006938401805460ff1990811660019081179092558a8952968590529490962091820180549096161790945592909201805490911682179055600280549091019055506106aa565b60606000610ca860015490565b905060008060005b83811015610d0b573360056000610cc884600161105d565b81526020810191909152604001600020600301546001600160a01b03161415610cf957610cf660018461105d565b92505b80610d038161108c565b915050610cb0565b5060008267ffffffffffffffff811115610d3557634e487b7160e01b600052604160045260246000fd5b604051908082528060200260200182016040528015610d6e57816020015b610d5b610e81565b815260200190600190039081610d535790505b50905060005b848110156102c2573360056000610d8c84600161105d565b81526020810191909152604001600020600301546001600160a01b03161415610e6f576000610dbc82600161105d565b600081815260056020818152604092839020835160e0810185528154815260018201546001600160a01b0390811693820193909352600282015494810194909452600381015482166060850152600481015490911660808401529081015460a0830152600681015460ff16151560c0830152855192935091859087908110610e5457634e487b7160e01b600052603260045260246000fd5b6020908102919091010152610e6a60018661105d565b945050505b80610e798161108c565b915050610d74565b6040805160e081018252600080825260208201819052918101829052606081018290526080810182905260a0810182905260c081019190915290565b80356001600160a01b0381168114610ed457600080fd5b919050565b60008060408385031215610eeb578182fd5b610ef483610ebd565b946020939093013593505050565b600080600060608486031215610f16578081fd5b610f1f84610ebd565b95602085013595506040909401359392505050565b602080825282518282018190526000919060409081850190868401855b82811015610fbb57815180518552868101516001600160a01b039081168887015286820151878701526060808301518216908701526080808301519091169086015260a0808201519086015260c09081015115159085015260e09093019290850190600101610f51565b5091979650505050505050565b602080825260409082018190527f506c65617365207375626d6974207468652061736b696e672070726963652069908201527f6e206f7264657220746f20636f6d706c65746520746865207075726368617365606082015260800190565b6020808252601f908201527f5265656e7472616e637947756172643a207265656e7472616e742063616c6c00604082015260600190565b60008219821115611070576110706110a7565b500190565b600082821015611087576110876110a7565b500390565b60006000198214156110a0576110a06110a7565b5060010190565b634e487b7160e01b600052601160045260246000fdfea26469706673582212207119baaf38443299cb1783194957645d4a7cec4fcf9dbed2787cdaabc5571b9664736f6c63430008040033",
  "linkReferences": {},
  "deployedLinkReferences": {}
}